:100000000C9464000C948C000C948C000C94BA0139
:100010000C94E4010C940E020C948C000C948C0053
:100020000C948C000C948C000C948C000C948C0020
:100030000C948C000C948E000C948C000C948C000E
:100040000C949D070C948C000C94A4030C94F20364
:100050000C948C000C948C000C948C000C948C00F0
:100060000C948C000C948C000000000024002700ED
:100070002A0000000000250028002B0000000000DE
:1000800023002600290004040404040404040202DA
:100090000202020203030303030301020408102007
:1000A0004080010204081020010204081020000012
:1000B0000007000201000003040600000000000029
:1000C000000058025E05510211241FBECFEFD8E098
:1000D000DEBFCDBF11E0A0E0B1E0EAE2F3E102C093
:1000E00005900D92AA34B107D9F712E0AAE4B1E065
:1000F00001C01D92A536B107E1F710E0C6ECD0E0D3
:1001000004C02297FE010E948409C23CD107C9F7AE
:100110000E94F3060C9488090C9400001F920F9221
:100120000FB60F9211242F933F934F935F936F93CA
:100130007F938F939F93AF93BF93EF93FF93E09140
:100140004E01F0914F010995FF91EF91BF91AF9151
:100150009F918F917F916F915F914F913F912F91DF
:100160000F900FBE0F901F901895FC01A3E0440F55
:10017000551F661F771FAA95D1F7403080E05807BA
:1001800081E0680780E0780714F481E010C033E074
:1001900075956795579547953A95D1F7403080E02A
:1001A000580781E0680780E078071CF482E08283CA
:1001B00039C023E075956795579547952A95D1F7EE
:1001C000403080E0580781E0680780E0780714F449
:1001D00083E0EDCF92E075956795579547959A9591
:1001E000D1F7403080E0580781E0680780E0780769
:1001F00014F484E0DCCF82E07595679557954795B8
:100200008A95D1F7403080E0580781E0680780E0A8
:10021000780714F485E0CBCF85E082834FEF5FEF62
:1002200060E070E08FB78383F894518340835093EC
:1002300087004093860083818FBF80918100887FF3
:1002400080938100809181009281892B809381002D
:1002500008951092800020E1209381000E94B50053
:1002600008950F931F93CF93DF93EC018B01121628
:1002700013061406150624F4BA01A9010E94B5005C
:100280001D830C8381E080936F00809181009A81AF
:10029000892B80938100DF91CF911F910F91089559
:1002A0000F931F93CF93DF93FC01738D769571703D
:1002B000A685B7859585772329F08C91892309F444
:1002C00054C004C08C91892309F04FC0838994895C
:1002D00020E001972FEF8F3F9207D9F7C589D68984
:1002E000A685B785158560E031E040E050E000E08C
:1002F000CE01202F01972FEF8F3F9207D9F78C91D6
:10030000812311F0632B03C0832F80956823330F63
:100310004F5F5F4F4830510559F78789908D20E036
:1003200001972FEF8F3F9207D9F771116095809158
:1003300092012091930190E001968F73907030E0CC
:100340008217930779F0E0919201F0E0EE5AFE4FA8
:1003500060838091920190E001968F7390708093FA
:10036000920103C0838D8160838FDF91CF911F91B4
:100370000F9108951F920F920FB60F9211242F9391
:100380003F934F935F936F937F938F939F93AF931D
:10039000BF93EF93FF93809150019091510100978B
:1003A00011F00E945001FF91EF91BF91AF919F9189
:1003B0008F917F916F915F914F913F912F910F900E
:1003C0000FBE0F901F9018951F920F920FB60F92AD
:1003D00011242F933F934F935F936F937F938F934A
:1003E0009F93AF93BF93EF93FF93809150019091B0
:1003F0005101009711F00E945001FF91EF91BF91C0
:10040000AF919F918F917F916F915F914F913F91AC
:100410002F910F900FBE0F901F9018951F920F9263
:100420000FB60F9211242F933F934F935F936F93C7
:100430007F938F939F93AF93BF93EF93FF9380919D
:10044000500190915101009711F00E945001FF91CD
:10045000EF91BF91AF919F918F917F916F915F913C
:100460004F913F912F910F900FBE0F901F901895B5
:100470008130910561F46F5F7F4F91F484E991E0E1
:1004800064E670E041E050E00E9418030895892B73
:1004900039F46F5F7F4F21F484E991E00E94D2022A
:1004A000089580E090E06FEF7FEF0E94380208959A
:1004B00081E090E06FEF7FEF0E943802089584E9B9
:1004C00091E00E94720308950F931F9308E312E0D6
:1004D000C80160E071E00E94DD0684E991E00E94BD
:1004E0002903BC01C8014AE050E00E94BE0664EF47
:1004F00071E080E090E00E942A081F910F9108951A
:10050000AF92BF92CF92DF92EF92FF920F931F9321
:10051000A8E3AA2EA2E0BA2EC50140E855E260E0A9
:1005200070E00E942D04F4E9CF2EF1E0DF2EC60129
:1005300062E070E043E050E024E030E005E010E0ED
:10054000E6E0EE2EF12C0E942D03C6010E9404036A
:100550000AE411E0C80144E650E060E070E00E9467
:100560002901C8016FE572E028EE33E040E050E079
:100570000E943101C6016AE070E00E94D802C60103
:1005800068EE73E00E942503C5016BE171E00E94F3
:10059000E0061F910F91FF90EF90DF90CF90BF90FA
:1005A000AF900895FC0185E391E0918380830895E5
:1005B0000F931F938C019B01FC01738B628B44276B
:1005C00037FD4095542F60E077E883E993E00E947F
:1005D0006709CA01B901F801448555852685378523
:1005E000F9014E9F90014F9F300D5E9F300D1124F9
:1005F000442737FD4095542F0E946709F801338F37
:10060000228F1F910F9108950F931F938C01FC016E
:10061000118A108A60E070E00E94D802F801178AFF
:10062000168A118E108E138E128E1F910F910895BF
:10063000FC0185E391E09183808355874487778728
:100640006687CF010E9404030895FC01778B668BB7
:100650000895FC01868997890895CF92DF92EF92E1
:10066000FF920F931F936C01862FF60162837383B1
:10067000558344833783268311870087F386E28678
:1006800061E00E949208F601848161E00E94920874
:10069000F601868161E00E949208F601808561E0A2
:1006A0000E949208F601828561E00E9492081F91E3
:1006B0000F91FF90EF90DF90CF9008950F931F93CD
:1006C0008C01FC01848161E00E94D10882E390E00A
:1006D0000E94E507F801848160E00E94D1081F9123
:1006E0000F910895CF93DF93EC018A899B891816A7
:1006F0001906DCF48E899F8918161906B4F4888DC2
:10070000998D181619066CF08A8D9B8D998F888F9C
:10071000CE010E945E038E899F8901979F8B8E8BED
:1007200006C00197998F888F02C01F8A1E8ADF91A9
:10073000CF910895FC0185E391E091838083CF01FF
:100740000E949A07089508951F920F920FB60F9274
:1007500011242F933F934F938F939F93EF93FF9386
:100760008091C00082FD1DC04091C6002091F00123
:100770003091F1012F5F3F4F2F7330708091F20164
:100780009091F3012817390771F0E091F001F09191
:10079000F101E055FE4F40833093F1012093F001C9
:1007A00002C08091C600FF91EF919F918F914F9170
:1007B0003F912F910F900FBE0F901F901895E091D1
:1007C0004402F0914502E05CFF4F819191912081BC
:1007D0003181821B930B8F739070892B11F00E94D3
:1007E000A30308951F920F920FB60F9211242F9317
:1007F0003F938F939F93EF93FF9320913402309117
:10080000350280913602909137022817390731F46A
:100810008091C1008F7D8093C10014C0E0913602A9
:10082000F0913702EC50FE4F20818091360290917A
:10083000370201968F73907090933702809336023F
:100840002093C600FF91EF919F918F913F912F913F
:100850000F900FBE0F901F901895AF92BF92DF922E
:10086000EF92FF920F931F93CF93DF93EC017A01E6
:100870008B01DD24403081EE580780E0680780E07E
:10088000780711F0DD24D39491E0A92EB12CEC89E6
:10089000FD89DD2069F0C50108A002C0880F991FFD
:1008A0000A94E2F7808360E079E08DE390E005C090
:1008B000108260E874E88EE190E0A80197010E9440
:1008C0004509215030404040504056954795379556
:1008D000279580E12030380720F0DD2011F0DD245D
:1008E000D6CFE889F9893083EA89FB89208319A268
:1008F000EE89FF89408121E030E0C9010C8C02C003
:10090000880F991F0A94E2F7482B4083EE89FF89EC
:100910004081C9010D8C02C0880F991F0A94E2F72B
:10092000482B4083EE89FF894081C9010E8C02C0AB
:10093000880F991F0A94E2F7482B4083EE89FF89BC
:1009400080810F8C02C0220F331F0A94E2F720959A
:1009500028232083DF91CF911F910F91FF90EF907B
:10096000DF90BF90AF900895DC011C96ED91FC9153
:100970001D97E05CFF4F2191319180819181281B6F
:10098000390B2F733070C9010895DC011C96ED916D
:10099000FC911D97E05CFF4F20813181E054F040D5
:1009A000DF01AE5BBF4F8D919C91119728173907DE
:1009B00019F42FEF3FEF07C08D919C91E80FF91FBD
:1009C0008081282F30E0C9010895DC011C96ED914B
:1009D000FC911D97E05CFF4F20813181E054F04095
:1009E000DF01AE5BBF4F8D919C911197281739079E
:1009F00019F42FEF3FEF10C08D919C911197E80FE4
:100A0000F91F20818D919C91119701968F739070A1
:100A100011969C938E9330E0C9010895DC01919664
:100A20008C919197882339F05496ED91FC915597CC
:100A3000808186FFF9CF91961C920895CF93DF9322
:100A4000EC01EE85FF85E05CFF4F20813181E054B1
:100A5000F0402F5F3F4F2F733070DF01AE5BBF4F11
:100A60008D919C91119728173907D1F3E05CFF4FC6
:100A700080819181E054F040E80FF91F6083EE859A
:100A8000FF85E05CFF4F31832083EE89FF89208161
:100A900081E090E00F8C02C0880F991F0A94E2F762
:100AA000282B208381E089A3EC89FD8980818064E3
:100AB000808381E090E0DF91CF91089510923B0216
:100AC00010923A0288EE93E0A0E0B0E080933C02FE
:100AD00090933D02A0933E02B0933F028DE391E0DC
:100AE000909339028093380280EB91E09093450215
:100AF0008093440284EF91E09093470280934602F2
:100B000085EC90E0909349028093480284EC90E059
:100B100090934B0280934A0280EC90E090934D02B8
:100B200080934C0281EC90E090934F0280934E02B0
:100B300082EC90E0909351028093500286EC90E01A
:100B4000909353028093520284E08093540283E096
:100B50008093550287E08093560285E08093570288
:100B600081E0809358020895CF92DF92EF92FF9236
:100B70000F931F93CF93DF937C016B018A01C0E039
:100B8000D0E00FC0D6016D916D01D701ED91FC91C0
:100B90000190F081E02DC7010995C80FD91F0150C0
:100BA00010400115110571F7CE01DF91CF911F9112
:100BB0000F91FF90EF90DF90CF900895EF92FF920A
:100BC0000F931F938C01DC01ED91FC910190F0815A
:100BD000E02D6DE009957C01D801ED91FC9101902B
:100BE000F081E02DC8016AE009959C012E0D3F1DA2
:100BF000C9011F910F91FF90EF900895CF93DF935C
:100C0000EC016115710519F420E030E00FC0DB0143
:100C10000D900020E9F71197A61BB70BE881F98129
:100C20000280F381E02DAD0109959C01C901DF919E
:100C3000CF9108954F925F927F928F929F92AF9241
:100C4000BF92CF92DF92EF92FF920F931F93DF93A9
:100C5000CF93CDB7DEB7A1970FB6F894DEBF0FBE26
:100C6000CDBF2C01742ECB01223008F42AE019A24A
:100C700031E2C32ED12CCC0EDD1E822E9924AA2463
:100C8000BB24672D752FA50194010E9445097901A8
:100C90008A01C801B701A50194010E942609472DC8
:100CA000461B0894C108D1084A3014F4405D01C0C5
:100CB000495CF6014083E114F1040105110521F0BE
:100CC0007E2C5F2DC801DDCFC201B6010E94FE055A
:100CD000A1960FB6F894DEBF0FBECDBFCF91DF91C6
:100CE0001F910F91FF90EF90DF90CF90BF90AF904A
:100CF0009F908F907F905F904F900895CF92DF925A
:100D0000EF92FF920F931F93CF93DF93EC016A0151
:100D10007B012115310541F4E881F9810190F081D1
:100D2000E02D642F09951FC02A303105D1F477FFDB
:100D300017C0E881F9810190F081E02D6DE20995FD
:100D40008C0144275527BA014C195D096E097F09AA
:100D5000CE012AE00E941A069801280F391F04C00C
:100D60002AE00E941A069C01C901DF91CF911F91D0
:100D70000F91FF90EF90DF90CF900895CF92DF9288
:100D8000EF92FF920F931F936C017B019A01002752
:100D9000F7FC0095102FB801A7010E947E068C0178
:100DA000C6010E94DE05080F191FC8011F910F918F
:100DB000FF90EF90DF90CF9008950E94FE05089578
:100DC000EF92FF920F931F937C010E94FE058C010E
:100DD000C7010E94DE05080F191FC8011F910F915E
:100DE000FF90EF900895CF93DF930E94EF070E944A
:100DF0008002CFEDD3E00E9464022097E1F30E94CD
:100E0000DF03F9CFCF93DF939C01009709F48FC0E4
:100E1000EC0122971B821A82609163027091640236
:100E20006115710581F488819981820F931F20914A
:100E30002F01309130012817390739F5D09330014F
:100E4000C0932F0174C0DB0140E050E0AC17BD0738
:100E500008F1BB83AA83FE0121913191E20FF31FB8
:100E6000AE17BF0779F48D919C911197280F391F08
:100E70002E5F3F4F3983288312968D919C91139753
:100E80009B838A834115510571F4D0936402C0930A
:100E900063024DC012968D919C911397AD010097FE
:100EA00011F0DC01D3CFDA011396DC93CE931297C5
:100EB000FA0121913191E20FF31FCE17DF0769F498
:100EC00088819981280F391F2E5F3F4FFA013183A6
:100ED00020838A819B8193838283E0E0F0E0DB01C1
:100EE00012968D919C911397009719F0BC01FD010A
:100EF000F6CFAB014E5F5F4FDB018D919C91840F6C
:100F0000951F20912F01309130012817390779F46E
:100F1000309729F4109264021092630202C0138287
:100F20001282425050405093300140932F01DF9184
:100F3000CF9108950E94020708951F920F920FB655
:100F40000F9211242F933F938F939F93AF93BF934F
:100F500080915E0290915F02A0916002B091610267
:100F6000309162020196A11DB11D232F2D5F2D37F7
:100F700020F02D570196A11DB11D20936202809390
:100F80005E0290935F02A0936002B0936102809131
:100F90005A0290915B02A0915C02B0915D020196B1
:100FA000A11DB11D80935A0290935B02A0935C0235
:100FB000B0935D02BF91AF919F918F913F912F911F
:100FC0000F900FBE0F901F901895019739F0880F62
:100FD000991F880F991F02970197F1F70895789448
:100FE00084B5826084BD84B5816084BD85B582602E
:100FF00085BD85B5816085BDEEE6F0E080818160CC
:101000008083E1E8F0E010828081826080838081CB
:1010100081608083E0E8F0E0808181608083E1EBA3
:10102000F0E0808184608083E0EBF0E0808181608B
:101030008083EAE7F0E08081846080838081826041
:10104000808380818160808380818068808310922A
:10105000C1000895EF92FF920F931F93CF93DF93F8
:101060007B018C013FB7F89480915A0290915B020A
:10107000A0915C02B0915D0226B5A89B05C02F3FF0
:1010800019F00196A11DB11D3FBFBA2FA92F982FAE
:101090008827820F911DA11DB11D52E0880F991F55
:1010A000AA1FBB1F5A95D1F7EC0130C00E94250939
:1010B0003FB7F89480915A0290915B02A0915C0234
:1010C000B0915D0226B5A89B05C02F3F19F001968F
:1010D000A11DB11D3FBFBA2FA92F982F8827820FBE
:1010E000911DA11DB11D32E0880F991FAA1FBB1FC2
:1010F0003A95D1F78C1B9D0B885E9340B8F208940B
:10110000E108F10801091109C851DC4FE114F104AB
:101110000105110559F6DF91CF911F910F91FF90B5
:10112000EF900895CF93DF93482F50E0CA01865681
:101130009F4FFC0134914A575F4FFA0184918823F5
:1011400069F190E0880F991FFC01E859FF4FA591C4
:10115000B491FC01EE58FF4FC591D491662351F430
:101160002FB7F8948C91932F909589238C93888135
:1011700089230BC0623061F42FB7F8948C91932FC0
:10118000909589238C938881832B88832FBF06C0F9
:101190009FB7F8948C91832B8C939FBFDF91CF9155
:1011A0000895482F50E0CA0182559F4FFC012491B9
:1011B000CA0186569F4FFC0194914A575F4FFA012E
:1011C0003491332309F440C0222351F1233071F0CC
:1011D000243028F42130A1F0223011F514C026303B
:1011E000B1F02730C1F02430D9F404C080918000E0
:1011F0008F7703C0809180008F7D8093800010C026
:1012000084B58F7702C084B58F7D84BD09C080917D
:10121000B0008F7703C08091B0008F7D8093B000C5
:10122000E32FF0E0EE0FFF1FEE58FF4FA591B491B2
:101230002FB7F894662321F48C919095892302C0EE
:101240008C91892B8C932FBF08950895629FD001B4
:10125000739FF001829FE00DF11D649FE00DF11D71
:10126000929FF00D839FF00D749FF00D659FF00D20
:101270009927729FB00DE11DF91F639FB00DE11D0D
:10128000F91FBD01CF0111240895A1E21A2EAA1B56
:10129000BB1BFD010DC0AA1FBB1FEE1FFF1FA21726
:1012A000B307E407F50720F0A21BB30BE40BF50B23
:1012B000661F771F881F991F1A9469F760957095AC
:1012C000809590959B01AC01BD01CF01089597FBDE
:1012D000092E05260ED057FD04D0D7DF0AD0001CFA
:1012E00038F450954095309521953F4F4F4F5F4FC3
:1012F0000895F6F790958095709561957F4F8F4F83
:101300009F4F0895EE0FFF1F0590F491E02D099473
:1013100010E0C6ECD0E004C0FE010E9484092296D1
:0A132000C83CD107C9F7F894FFCFCD
:10132A006573746F20657320656C206C6F6F702015
:10133A002D2D2D205061736F733D006573746F7985
:10134A0020696E696369616C697A616E646F0065B0
:10135A000200000000D2029A03000000001E05B439
:0A136A0005B404E504C5040E0500F7
:00000001FF
